{
  "_format": "hh-sol-artifact-1",
  "contractName": "DDrive",
  "sourceName": "contracts/DDrive.sol",
  "abi": [
    {
      "inputs": [
        {
          "internalType": "address",
          "name": "_user",
          "type": "address"
        },
        {
          "internalType": "string",
          "name": "item",
          "type": "string"
        }
      ],
      "name": "add",
      "outputs": [],
      "stateMutability": "nonpayable",
      "type": "function"
    },
    {
      "inputs": [
        {
          "internalType": "address",
          "name": "_user",
          "type": "address"
        }
      ],
      "name": "displayItems",
      "outputs": [
        {
          "internalType": "string[]",
          "name": "",
          "type": "string[]"
        }
      ],
      "stateMutability": "view",
      "type": "function"
    },
    {
      "inputs": [],
      "name": "getAccessList",
      "outputs": [
        {
          "components": [
            {
              "internalType": "address",
              "name": "user",
              "type": "address"
            },
            {
              "internalType": "bool",
              "name": "access",
              "type": "bool"
            }
          ],
          "internalType": "struct DDrive.Access[]",
          "name": "",
          "type": "tuple[]"
        }
      ],
      "stateMutability": "view",
      "type": "function"
    },
    {
      "inputs": [
        {
          "internalType": "address",
          "name": "_user",
          "type": "address"
        }
      ],
      "name": "giveAccess",
      "outputs": [],
      "stateMutability": "nonpayable",
      "type": "function"
    },
    {
      "inputs": [
        {
          "internalType": "address",
          "name": "_user",
          "type": "address"
        }
      ],
      "name": "removeAccess",
      "outputs": [],
      "stateMutability": "nonpayable",
      "type": "function"
    }
  ],
  "bytecode": "608060405234801561001057600080fd5b50611437806100206000396000f3fe608060405234801561001057600080fd5b50600436106100575760003560e01c80632b081db31461005c57806336d6da551461008c5780638823da6c146100a85780638d5ddbb3146100c4578063cf12e870146100e2575b600080fd5b61007660048036038101906100719190610b74565b6100fe565b6040516100839190610cf3565b60405180910390f35b6100a660048036038101906100a19190610e4a565b610314565b005b6100c260048036038101906100bd9190610b74565b610389565b005b6100cc6105af565b6040516100d99190610fae565b60405180910390f35b6100fc60048036038101906100f79190610b74565b6106b8565b005b60603373ffffffffffffffffffffffffffffffffffffffff168273ffffffffffffffffffffffffffffffffffffffff1614806101c05750600160008373ffffffffffffffffffffffffffffffffffffffff1673ffffffffffffffffffffffffffffffffffffffff16815260200190815260200160002060003373ffffffffffffffffffffffffffffffffffffffff1673ffffffffffffffffffffffffffffffffffffffff16815260200190815260200160002060009054906101000a900460ff165b6101ff576040517f08c379a00000000000000000000000000000000000000000000000000000000081526004016101f690611053565b60405180910390fd5b6000808373ffffffffffffffffffffffffffffffffffffffff1673ffffffffffffffffffffffffffffffffffffffff168152602001908152602001600020805480602002602001604051908101604052809291908181526020016000905b8282101561030957838290600052602060002001805461027c906110a2565b80601f01602080910402602001604051908101604052809291908181526020018280546102a8906110a2565b80156102f55780601f106102ca576101008083540402835291602001916102f5565b820191906000526020600020905b8154815290600101906020018083116102d857829003601f168201915b50505050508152602001906001019061025d565b505050509050919050565b6000808373ffffffffffffffffffffffffffffffffffffffff1673ffffffffffffffffffffffffffffffffffffffff168152602001908152602001600020819080600181540180825580915050600190039060005260206000200160009091909190915090816103849190611289565b505050565b60005b600260003373ffffffffffffffffffffffffffffffffffffffff1673ffffffffffffffffffffffffffffffffffffffff16815260200190815260200160002080549050811015610516578173ffffffffffffffffffffffffffffffffffffffff16600260003373ffffffffffffffffffffffffffffffffffffffff1673ffffffffffffffffffffffffffffffffffffffff168152602001908152602001600020828154811061043e5761043d61135b565b5b9060005260206000200160000160009054906101000a900473ffffffffffffffffffffffffffffffffffffffff1673ffffffffffffffffffffffffffffffffffffffff1603610503576000600260003373ffffffffffffffffffffffffffffffffffffffff1673ffffffffffffffffffffffffffffffffffffffff16815260200190815260200160002082815481106104da576104d961135b565b5b9060005260206000200160000160146101000a81548160ff021916908315150217905550610516565b808061050e906113b9565b91505061038c565b506000600160003373ffffffffffffffffffffffffffffffffffffffff1673ffffffffffffffffffffffffffffffffffffffff16815260200190815260200160002060008373ffffffffffffffffffffffffffffffffffffffff1673ffffffffffffffffffffffffffffffffffffffff16815260200190815260200160002060006101000a81548160ff02191690831515021790555050565b6060600260003373ffffffffffffffffffffffffffffffffffffffff1673ffffffffffffffffffffffffffffffffffffffff168152602001908152602001600020805480602002602001604051908101604052809291908181526020016000905b828210156106af578382906000526020600020016040518060400160405290816000820160009054906101000a900473ffffffffffffffffffffffffffffffffffffffff1673ffffffffffffffffffffffffffffffffffffffff1673ffffffffffffffffffffffffffffffffffffffff1681526020016000820160149054906101000a900460ff16151515158152505081526020019060010190610610565b50505050905090565b600360003373ffffffffffffffffffffffffffffffffffffffff1673ffffffffffffffffffffffffffffffffffffffff16815260200190815260200160002060008273ffffffffffffffffffffffffffffffffffffffff1673ffffffffffffffffffffffffffffffffffffffff16815260200190815260200160002060009054906101000a900460ff16156108da5760005b600260003373ffffffffffffffffffffffffffffffffffffffff1673ffffffffffffffffffffffffffffffffffffffff168152602001908152602001600020805490508110156108d4578173ffffffffffffffffffffffffffffffffffffffff16600260003373ffffffffffffffffffffffffffffffffffffffff1673ffffffffffffffffffffffffffffffffffffffff16815260200190815260200160002082815481106107fc576107fb61135b565b5b9060005260206000200160000160009054906101000a900473ffffffffffffffffffffffffffffffffffffffff1673ffffffffffffffffffffffffffffffffffffffff16036108c1576001600260003373ffffffffffffffffffffffffffffffffffffffff1673ffffffffffffffffffffffffffffffffffffffff16815260200190815260200160002082815481106108985761089761135b565b5b9060005260206000200160000160146101000a81548160ff0219169083151502179055506108d4565b80806108cc906113b9565b91505061074a565b50610a6b565b6001600360003373ffffffffffffffffffffffffffffffffffffffff1673ffffffffffffffffffffffffffffffffffffffff16815260200190815260200160002060008373ffffffffffffffffffffffffffffffffffffffff1673ffffffffffffffffffffffffffffffffffffffff16815260200190815260200160002060006101000a81548160ff021916908315150217905550600260003373ffffffffffffffffffffffffffffffffffffffff1673ffffffffffffffffffffffffffffffffffffffff16815260200190815260200160002060405180604001604052808373ffffffffffffffffffffffffffffffffffffffff168152602001600115158152509080600181540180825580915050600190039060005260206000200160009091909190915060008201518160000160006101000a81548173ffffffffffffffffffffffffffffffffffffffff021916908373ffffffffffffffffffffffffffffffffffffffff16021790555060208201518160000160146101000a81548160ff02191690831515021790555050505b60018060003373ffffffffffffffffffffffffffffffffffffffff1673ffffffffffffffffffffffffffffffffffffffff16815260200190815260200160002060008373ffffffffffffffffffffffffffffffffffffffff1673ffffffffffffffffffffffffffffffffffffffff16815260200190815260200160002060006101000a81548160ff02191690831515021790555050565b6000604051905090565b600080fd5b600080fd5b600073ffffffffffffffffffffffffffffffffffffffff82169050919050565b6000610b4182610b16565b9050919050565b610b5181610b36565b8114610b5c57600080fd5b50565b600081359050610b6e81610b48565b92915050565b600060208284031215610b8a57610b89610b0c565b5b6000610b9884828501610b5f565b91505092915050565b600081519050919050565b600082825260208201905092915050565b6000819050602082019050919050565b600081519050919050565b600082825260208201905092915050565b60005b83811015610c07578082015181840152602081019050610bec565b60008484015250505050565b6000601f19601f8301169050919050565b6000610c2f82610bcd565b610c398185610bd8565b9350610c49818560208601610be9565b610c5281610c13565b840191505092915050565b6000610c698383610c24565b905092915050565b6000602082019050919050565b6000610c8982610ba1565b610c938185610bac565b935083602082028501610ca585610bbd565b8060005b85811015610ce15784840389528151610cc28582610c5d565b9450610ccd83610c71565b925060208a01995050600181019050610ca9565b50829750879550505050505092915050565b60006020820190508181036000830152610d0d8184610c7e565b905092915050565b600080fd5b600080fd5b7f4e487b7100000000000000000000000000000000000000000000000000000000600052604160045260246000fd5b610d5782610c13565b810181811067ffffffffffffffff82111715610d7657610d75610d1f565b5b80604052505050565b6000610d89610b02565b9050610d958282610d4e565b919050565b600067ffffffffffffffff821115610db557610db4610d1f565b5b610dbe82610c13565b9050602081019050919050565b82818337600083830152505050565b6000610ded610de884610d9a565b610d7f565b905082815260208101848484011115610e0957610e08610d1a565b5b610e14848285610dcb565b509392505050565b600082601f830112610e3157610e30610d15565b5b8135610e41848260208601610dda565b91505092915050565b60008060408385031215610e6157610e60610b0c565b5b6000610e6f85828601610b5f565b925050602083013567ffffffffffffffff811115610e9057610e8f610b11565b5b610e9c85828601610e1c565b9150509250929050565b600081519050919050565b600082825260208201905092915050565b6000819050602082019050919050565b610edb81610b36565b82525050565b60008115159050919050565b610ef681610ee1565b82525050565b604082016000820151610f126000850182610ed2565b506020820151610f256020850182610eed565b50505050565b6000610f378383610efc565b60408301905092915050565b6000602082019050919050565b6000610f5b82610ea6565b610f658185610eb1565b9350610f7083610ec2565b8060005b83811015610fa1578151610f888882610f2b565b9750610f9383610f43565b925050600181019050610f74565b5085935050505092915050565b60006020820190508181036000830152610fc88184610f50565b905092915050565b600082825260208201905092915050565b7f416363657373206e6f7420676976656e20746f20796f752066726f6d206f776e60008201527f6572210000000000000000000000000000000000000000000000000000000000602082015250565b600061103d602383610fd0565b915061104882610fe1565b604082019050919050565b6000602082019050818103600083015261106c81611030565b9050919050565b7f4e487b7100000000000000000000000000000000000000000000000000000000600052602260045260246000fd5b600060028204905060018216806110ba57607f821691505b6020821081036110cd576110cc611073565b5b50919050565b60008190508160005260206000209050919050565b60006020601f8301049050919050565b600082821b905092915050565b6000600883026111357fffffffffffffffffffffffffffffffffffffffffffffffffffffffffffffffff826110f8565b61113f86836110f8565b95508019841693508086168417925050509392505050565b6000819050919050565b6000819050919050565b600061118661118161117c84611157565b611161565b611157565b9050919050565b6000819050919050565b6111a08361116b565b6111b46111ac8261118d565b848454611105565b825550505050565b600090565b6111c96111bc565b6111d4818484611197565b505050565b5b818110156111f8576111ed6000826111c1565b6001810190506111da565b5050565b601f82111561123d5761120e816110d3565b611217846110e8565b81016020851015611226578190505b61123a611232856110e8565b8301826111d9565b50505b505050565b600082821c905092915050565b600061126060001984600802611242565b1980831691505092915050565b6000611279838361124f565b9150826002028217905092915050565b61129282610bcd565b67ffffffffffffffff8111156112ab576112aa610d1f565b5b6112b582546110a2565b6112c08282856111fc565b600060209050601f8311600181146112f357600084156112e1578287015190505b6112eb858261126d565b865550611353565b601f198416611301866110d3565b60005b8281101561132957848901518255600182019150602085019450602081019050611304565b868310156113465784890151611342601f89168261124f565b8355505b6001600288020188555050505b505050505050565b7f4e487b7100000000000000000000000000000000000000000000000000000000600052603260045260246000fd5b7f4e487b7100000000000000000000000000000000000000000000000000000000600052601160045260246000fd5b60006113c482611157565b91507fffffffffffffffffffffffffffffffffffffffffffffffffffffffffffffffff82036113f6576113f561138a565b5b60018201905091905056fea26469706673582212205e9b5ead9cf1a1d1b3dc1b762baf422a602e1e86530b1b1a2bbda82b99a6bb6f64736f6c63430008120033",
  "linkReferences": {},
  "deployedLinkReferences": {}
}